:020000040800F2
:10000000B00D002051090008AD090008AD09000835
:10001000AD090008AD090008AD09000800000000A6
:10002000000000000000000000000000AD09000812
:10003000AD09000800000000AD0900083D100008EF
:10004000AD090008AD090008AD090008AD090008B8
:10005000AD090008AD090008B10D0008AD090008A0
:10006000AD090008AD090008AD090008AD09000898
:10007000AD090008AD090008AD090008AD09000888
:10008000AD090008AD090008AD090008AD09000878
:10009000AD090008AD090008AD090008AD09000868
:1000A000AD090008AD090008AD090008AD09000858
:1000B000AD090008E50C0008AD090008AD0900080D
:1000C000AD090008AD090008AD090008AD09000838
:1000D000AD090008AD090008AD0900083D0D000894
:1000E000AD090008AD090008AD090008AD09000818
:1000F000AD090008AD090008AD090008AD09000808
:10010000AD090008AD090008AD090008AD090008F7
:10011000AD090008AD090008AD090008AD090008E7
:10012000AD090008AD090008AD090008AD090008D7
:10013000AD090008AD090008AD090008AD090008C7
:10014000AD090008AD090008AD090008AD090008B7
:10015000AD090008AD090008AD090008AD090008A7
:10016000AD090008AD090008AD090008AD09000897
:10017000AD090008AD090008AD090008AD09000887
:10018000AD090008AD09000890B484B000AF034683
:100190000A46FB711346BB710023FB60BB7903F079
:1001A00003039B000F2202FA03F3FB601649BB799D
:1001B0009B08DBB21846144ABB799B08DBB20233BA
:1001C00052F82320FB68DB431A40831C41F82320AC
:1001D0000D48BB799B08DBB21C460B4ABB799B08D8
:1001E000DBB2023352F82320F979BB7903F0030321
:1001F0009B0001FA03F31A43A31C40F8232000BF1D
:100200001037BD4690BC70470038014080B485B0BF
:1002100000AF78600F4B1A687B6802FB03F3FB604A
:100220000D4B1B680D4A934204D00B4B1B680C4AC4
:10023000934204D1074B1B68FA68D31AFB6000BFD6
:10024000FB685A1EFA60002BFAD100BF1437BD4676
:1002500080BC7047A8050020100000200095BA0A55
:1002600000E1F50580B582B000AF03460A46FB7198
:100270001346BB7100F05AFF00F098F94AF6C870B7
:10028000FFF7C4FF2A4ABB79D370294AFB7913715F
:10029000274B00225A71264B00229A71244B0022D0
:1002A0005A70BB79012B06D9214B5B7843F00803C8
:1002B000DAB21F4B5A70032000F0F2F841F29410AA
:1002C000FFF7A4FF032000F0EBF841F29410FFF7D2
:1002D0009DFF032000F0E4F841F29410FFF796FF31
:1002E000022000F0DDF86420FFF790FF104B5B78F0
:1002F00043F02003DBB2184600F09AF80C4B0422BE
:100300001A7000F07FF800F015F8094B02229A707D
:10031000074B9B7843F00403DBB2184600F088F8E3
:1003200041F29410FFF772FF00BF0837BD4680BD51
:100330005404002080B500AF012000F079F840F6A9
:10034000B830FFF763FF00BF80BD00BF80B582B04B
:1003500000AF03463A60FB710B46BB71BA79FB797B
:100360001146184600F0EEF842E0254B5A79244B2E
:100370001B799A4210D3224B00225A71204B9B7951
:100380000133DAB21E4B9A711D4B5A791C4B9B7983
:100390001946104600F0D6F83B681B780A2B0ED1A0
:1003A000174B9B790133DAB2154B9A71144B5A797A
:1003B000134B9B791946104600F0C4F815E03B68D2
:1003C0001B780D2B06D10E4B9B791946002000F0AF
:1003D000B9F80AE03B681B78184600F045F8084B6E
:1003E0005B790133DAB2064B5A713B6801333B60EB
:1003F0003B681B78002BB8D100BF0837BD4680BDD5
:100400005404002080B500AF084B1B7843F0040370
:10041000DAB2064B1A70054B1B7843F00803DBB2C7
:10042000184600F005F800BF80BD00BF540400204E
:1004300080B582B000AF0346FB710A4B04225A8399
:10044000FB791B09DBB2184600F02AF8FB7903F0B0
:100450000F03DBB2184600F023F800BF0837BD4693
:1004600080BD00BF0004024080B582B000AF0346EB
:10047000FB710A4B04221A83FB791B09DBB2184675
:1004800000F00EF8FB7903F00F03DBB2184600F022
:1004900007F800BF0837BD4680BD00BF000402401A
:1004A00080B582B000AF0346FB71FB7903F008030F
:1004B000002B04D0214B4FF400521A8303E01F4B52
:1004C0004FF400525A83FB7903F00403002B04D04D
:1004D0001A4B4FF480521A8303E0184B4FF48052AA
:1004E0005A83FB7903F00203002B04D0144B4FF422
:1004F00000521A8303E0124B4FF400525A83FB79E7
:1005000003F00103002B04D00D4B4FF480521A83EB
:1005100003E00B4B4FF480525A83084B80221A831E
:100520001420FFF773FE054B80225A831420FFF737
:100530006DFE00BF0837BD4680BD00BF000402400D
:100540000008024080B584B000AF03460A46FB7144
:100550001346BB71134A07F10C0310681860124B65
:10056000DB78BA799A4201D30023BB710E4AFB793A
:1005700053710D4ABB799371BB7907F11002134493
:1005800013F8042CFB791344DBB25BB263F07F03F6
:100590005BB2DBB21846FFF74BFF00BF1037BD461A
:1005A00080BD00BFD81900085404002080B582B077
:1005B00002AF0023019300230093002301220421B2
:1005C000284800F0C7FF0023019300230093002375
:1005D00001228021234800F0BDFF00230193002366
:1005E0000093002301224FF480511F4800F0B2FF16
:1005F0000023019300230093002301224FF40051B4
:10060000194800F0A7FF0023019300230093002363
:1006100001224FF48051134800F09CFF0023019306
:1006200000230093002301224FF400510D4800F0F5
:1006300091FF0C4B04225A830A4B80225A830A4BA7
:100640004FF480525A83084B4FF400525A83054BA3
:100650004FF480525A83034B4FF400525A8300BF29
:10066000BD4680BD000402400008024080B58AB04B
:1006700000AF7860396000237B6200233B62002377
:10068000FB610023BB617B681B8A9BB27B627B6A38
:1006900023F440537B623B68DB881A467B6A134332
:1006A0007B627B6A9AB27B681A827B689B899BB269
:1006B0007B627B6A23F4B05323F00C037B623B68BC
:1006C0009A883B681B8913439AB23B685B89134342
:1006D0009BB21A467B6A13437B627B6A9AB27B6841
:1006E0009A817B689B8A9BB27B627B6A23F440730E
:1006F0007B623B689B891A467B6A13437B627B6AF9
:100700009AB27B689A8207F10803184600F064FBEE
:100710007B68304A934203D07B682F4A934202D1D0
:100720007B693B6201E03B693B627B689B899BB2D2
:100730001BB2002B0CDA3A6A13469B0013449A0052
:100740001A443B681B685B00B2FBF3F3FB610BE0F0
:100750003A6A13469B0013449A001A443B681B688C
:100760009B00B2FBF3F3FB61FB691C4AA2FB032372
:100770005B091B017B627B6A1B09642202FB03F39A
:10078000FA69D31ABB617B689B899BB21BB2002BB1
:100790000CDABB69DB003233104AA2FB03235B098E
:1007A00003F007037A6A13437B620BE0BB691B010A
:1007B00032330A4AA2FB03235B0903F00F037A6A70
:1007C00013437B627B6A9AB27B681A8100BF283729
:1007D000BD4680BD00100140001401401F85EB5153
:1007E00080B483B000AF78600B46FB70FB78002BC1
:1007F00008D07B689B899BB243F400539AB27B6814
:100800009A8107E07B689B899BB223F400539AB2DC
:100810007B689A8100BF0C37BD4680BC704700BF23
:1008200080B483B000AF78600B467B807B88C3F3D5
:1008300008039AB27B689A8000BF0C37BD4680BC23
:10084000704700BF80B483B000AF78607B689B883E
:100850009BB2C3F308039BB218460C37BD4680BC5D
:10086000704700BF80B485B000AF78600B467B80D6
:100870000023FB737B681B889AB27B8813409BB272
:10088000002B02D00123FB7301E00023FB73FB7BF1
:1008900018461437BD4680BC704700BF80B487B08F
:1008A00000AF78600B467B800023FB6000237B61F8
:1008B0000023BB600023FB747B88DBB25B09DBB2E7
:1008C000BB607B8803F01F037B6101227B6902FA16
:1008D00003F37B61BB68012B07D17B689B899BB2CB
:1008E0001A467B6913407B6111E0BB68022B07D17C
:1008F0007B681B8A9BB21A467B6913407B6106E0CA
:100900007B689B8A9BB21A467B6913407B617B881C
:100910001B0A9BB2FB600122FB6802FA03F3FB6037
:100920007B681B889BB21A46FB681340FB607B699F
:10093000002B05D0FB68002B02D00123FB7401E0E3
:100940000023FB74FB7C18461C37BD4680BC7047F7
:1009500080B582B000AF104B7B60104B3B6007E06E
:100960003B681A1D3A607A68111D796012681A6036
:100970003B680B4A9342F3D30A480B494FF00002FD
:100980008842B8BF40F8042BFADB00F057F800BFEC
:100990000837BD4680BD00BFFF19000800000020D9
:1009A0005404002054040020AC05002080B400AFA3
:1009B000FEE700BF80B483B000AF0346FB71084977
:1009C00097F907305B09FA7902F01F02012000FA5B
:1009D00002F241F8232000BF0C37BD4680BC7047AF
:1009E00000E100E080B485B000AF7860114B1B6877
:1009F000BB60EFF30583FB60FB68002B11D100BFE8
:100A00000C4B1A68BB68D21A7B689A42F8D30BE089
:100A1000094B1B6803F48033002B02D07B68013B39
:100A20007B607B68002BF3D100BF1437BD4680BCD0
:100A3000704700BF6804002010E000E090B593B05C
:100A400000AF0121022000F08FFA40F2E733BB63D0
:100A500042F2CF03BB860023BB870023FB8607F14E
:100A600034031946944800F047FE0121924800F0F3
:100A7000ADFE4FF4C06000F0FBFC1D2387F8303062
:100A8000002387F83130002387F83230012387F8BC
:100A9000333007F13003184600F0FCFC0121864892
:100AA00000F002FF01220121834800F0AFFE012186
:100AB000042000F03BFA01214FF4802000F054FAAA
:100AC0004FF44063BB62022387F82C30002387F881
:100AD0002E30012387F82F30022387F82D3007F1BD
:100AE00028031946754800F049FB07220A2173487C
:100AF00000F0D2FB07220B21704800F0CDFB4FF431
:100B00001653BB610023FB830023BB8300233B847C
:100B10000023BB840C237B8407F118031946684823
:100B2000FFF7A4FD01216648FFF75AFE272387F847
:100B30003030002387F83130002387F8323001232A
:100B400087F8333007F13003184600F0A3FC272064
:100B5000FFF730FFFFF7EEFB02211020FFF782FBCB
:100B6000584B07F108040FCB84E80F0007F1080386
:100B70001A4600210020FFF7E9FB4FF4FA70FFF757
:100B800031FFFFF7D7FB062387F83030002387F8C3
:100B90003130002387F83230012387F8333007F1F2
:100BA0003003184600F076FC01233B6000233B71C4
:100BB00008237B710123BB713B46184600F0B4FB50
:100BC00001210020FFF7E0FA3F4A00210020FFF753
:100BD000BDFB6420FFF706FFFFF7ACFB2021384880
:100BE000FFF740FE0346002BF8D03548FFF72AFEFA
:100BF000034687F84330354B1B68FE2B02DD334B31
:100C000000221A6097F84330302B0FD02F4B1B680F
:100C10002F4997F84320CA542C4B1B6801332B4AA9
:100C200013602C4B1B6801332A4A136097F843303A
:100C3000302BD3D1264800F0A7F8274800F0A4F8BD
:100C40002649234800F08EFE0246254B1A60FFF726
:100C500071FB00237B6414E07B6C022B16D07B6C51
:100C6000D9B21F4B1B681A460020FFF76FFB7B6C45
:100C700001337B641949002000F074FE0246184BD2
:100C80001A60174B1B68002BE6D100E000BF104A2A
:100C900000210020FFF75AFBFF2200210C4800F042
:100CA00013FE0F4B1B6804220021184600F00CFEB7
:100CB000064B00221A6091E7000400400008024041
:100CC00000480040EC190008DC1900085C04002012
:100CD000A804002060040020E4190008E8190008B6
:100CE000A404002080B500AF0121114800F0B2FD3E
:100CF0000346002B1AD000BF80210E48FFF7B2FD3B
:100D00000346002BF8D00C4800F03EF800BF40210D
:100D10000848FFF7A7FD0346002BF8D0012104483F
:100D200000F0C2FD0021024800F050FD00BF80BD70
:100D30000004004000480040FC19000880B500AFE6
:100D400040F225510248FFF7A9FD00BF80BD00BF5A
:100D50000048004080B582B000AF0346FB7100BF81
:100D600080210848FFF77EFD0346002BF8D0FB7971
:100D70009BB219460348FFF753FD00BF0837BD4635
:100D800080BD00BF0048004080B582B000AF7860F1
:100D900006E07B685A1C7A601B781846FFF7DAFF7A
:100DA0007B681B78002BF4D100BF0837BD4680BD9F
:100DB00080B500AF012000F029FB0346002B06D0D0
:100DC0000121044800F002FD012000F043FB00BFB8
:100DD00080BD00BF0004004080B489B000AF7860DF
:100DE0000023BB6100237B610023FB6102233B6185
:100DF0000023FB600223BB60484B9B6803F00C039D
:100E0000BB61BB69042B07D0082B09D0002B3FD155
:100E10007B68434A1A603FE07B68424A1A603BE0C5
:100E20003E4B5B6803F480039B0DFB603B4B5B68B0
:100E300003F03F03BB60FB68002B0DD0394ABB6851
:100E4000B2FBF3F2354B596847F6C0730B409B0970
:100E500003FB02F3FB610CE0314ABB68B2FBF3F227
:100E60002E4B596847F6C0730B409B0903FB02F3F6
:100E7000FB612A4B5B6803F440331B0C01335B00BE
:100E80003B61FA693B69B2FBF3F27B681A6003E0ED
:100E90007B68234A1A6000BF204B9B6803F0F00375
:100EA000BB61BB691B09BB611F4ABB6913441B784B
:100EB000DBB27B617B681A687B69DA407B685A60C9
:100EC000164B9B6803F4E053BB61BB699B0ABB6193
:100ED000154ABB6913441B78DBB27B617B685A6897
:100EE0007B69DA407B689A600C4B9B6803F4604333
:100EF000BB61BB695B0BBB610B4ABB6913441B78CD
:100F0000DBB27B617B685A687B69DA407B68DA60B8
:100F100000BF2437BD4680BC704700BF0038024088
:100F20000024F40000127A000000002080B483B096
:100F300000AF78600B46FB70FB78002B06D00949A8
:100F4000084B1A6B7B6813430B6306E00549054B9E
:100F50001A6B7B68DB4313400B6300BF0C37BD4645
:100F600080BC70470038024080B483B000AF786026
:100F70000B46FB70FB78002B06D00949084B1A6C16
:100F80007B6813430B6406E00549054B1A6C7B68CC
:100F9000DB4313400B6400BF0C37BD4680BC704779
:100FA0000038024080B483B000AF03463960FB7163
:100FB00097F90730002B0BDA0D49FB7903F00F038B
:100FC000043B3A68D2B21201D2B20B441A7609E05D
:100FD000084997F907303A68D2B21201D2B20B44ED
:100FE00083F8002300BF0C37BD4680BC704700BFAC
:100FF00000ED00E000E100E080B582B000AF786075
:101000007B68B3F1807F01D3012311E00A4A7B683A
:1010100023F07F43013B53600F214FF0FF30FFF778
:10102000C1FF054B00229A60034B07221A60002380
:1010300018460837BD4680BD10E000E080B582B09C
:1010400000AF374B1B680133354A1360354B1B68C3
:10105000002B04D0334B1B68013B324A1360AFF3C3
:1010600000800023FB7152E0FB792F4A9B00134460
:101070005B68002B48D0FB792B4A9B0013445B68CC
:101080001B7B002B40D0FB79274A9B0013445B68F5
:101090009B68002B38D0FB79234A9B0013445B6884
:1010A0009A68013A9A60FB791F4A9B0013445B6877
:1010B0009B68002B28D1FB791B4A9B0013445B687B
:1010C0001A69FB7918499B000B445B685B691846F9
:1010D0009047FB79144A9B0013445A68FB791249E4
:1010E0009B000B445B681B689360FB790E4A9B0076
:1010F00013445B685B68002B06D1FB790A4A9B00AE
:1011000013445B6800221A73FB790133FB71064BB1
:101110001B78FA799A42A7D300BF0837BD4680BD35
:10112000680400206C0400207404002080B500AF27
:101130000D4B1B680D4AA2FB03239B091846FFF7C2
:101140005BFF0346002B00D0FEE7074B1B689B09A3
:10115000074AA2FB03239B0A064A1360064B01229F
:101160001A7000BF80BD00BF10000020D34D621078
:1011700017916502A80500207004002080B487B094
:1011800000AF7860396000237B6100233B6100235E
:10119000FB6000237B6176E001227B6902FA03F3A6
:1011A0003B613B681A683B691340FB60FA683B6926
:1011B0009A4265D17B681A687B695B00032101FA5A
:1011C00003F3DB431A407B681A607B681A683B684C
:1011D0001B7919467B695B0001FA03F31A437B68AC
:1011E0001A603B681B79012B03D03B681B79022BEB
:1011F0002ED17B689A687B695B00032101FA03F3B7
:10120000DB431A407B689A607B689A683B685B792D
:1012100019467B695B0001FA03F31A437B689A6005
:101220007B685A687B699BB2194601238B40DB437C
:101230001A407B685A607B685B683A68927911460D
:101240007A6992B201FA02F292B21A437B685A604A
:101250007B68DA687B699BB25B00032101FA03F3C8
:10126000DB431A407B68DA607B68DA683B68DB79CD
:1012700019467B695B0001FA03F31A437B68DA6065
:101280007B6901337B617B690F2B85D900BF1C37DC
:10129000BD4680BC704700BF80B485B000AF7860A9
:1012A0000B467B8013467B700023FB600023BB60F2
:1012B0007A787B8803F007039B0002FA03F3FB6054
:1012C0007B88DB089BB218467B88DB089BB21A46FA
:1012D0007B68083253F822207B8803F007039B00C9
:1012E0000F2101FA03F3DB4302EA03017B6800F1FB
:1012F000080243F822107B88DB089BB21A467B6801
:10130000083253F82220FB681343BB607B88DB085C
:101310009BB21A467B680832B96843F8221000BFB6
:101320001437BD4680BC704780B485B000AF78608C
:101330000023FB60344BFB607B689B79002B4FD014
:101340003149314B1A687B681B68DB4313400B60E3
:101350002D492D4B5A687B681B68DB4313404B605B
:101360007B681B791A46FB681344FB60FB68FA68CC
:1013700011687A6812680A431A602349224B9A68F6
:101380007B681B68DB4313408B601F491E4BDA6888
:101390007B681B68DB431340CB607B685B79102B59
:1013A0000ED11949184B9A687B681B6813438B60F0
:1013B0001549154BDA687B681B681343CB601DE049
:1013C000114BFB607B685B791A46FB681344FB603A
:1013D000FB68FA6811687A6812680A431A600DE0BF
:1013E0007B681B791A46FB681344FB60FB68FA684C
:1013F00011687A681268D2430A401A6000BF143735
:10140000BD4680BC704700BF003C014080B485B041
:1014100000AF78600023FB730023BB600C4B1A689D
:101420007B681340BB600A4B5A697B681340002BF2
:1014300005D0BB68002B02D00123FB7301E0002321
:10144000FB73FB7B18461437BD4680BC704700BF5A
:10145000003C014080B483B000AF7860034A7B68F1
:10146000536100BF0C37BD4680BC7047003C014053
:1014700080B483B000AF7860054A7B6843F0BF63F7
:1014800043F40033D36000BF0C37BD4680BC7047C7
:1014900000ED00E080B485B000AF78600023FB73FE
:1014A0000023BB730F237B737B68DB78002B38D062
:1014B000264BDB68DB4303F4E0631B0AFB73FB7B17
:1014C000C3F10403BB737A7BFB7B42FA03F37B73A8
:1014D0007B685B781A46BB7B02FA03F3FB737B687D
:1014E0009A787B7B1340DAB2FB7B1343FB73FB7B65
:1014F0001B01FB73164A7B681B781344FA7B83F845
:101500000023134A7B681B785B09DBB218467B68B3
:101510001B7803F01F03012101FA03F342F8203086
:101520000FE00B497B681B785B09DBB218467B68D0
:101530001B7803F01F0301229A4000F1200341F8B9
:10154000232000BF1437BD4680BC704700ED00E08B
:1015500000E100E080B584B002AF78600846114633
:101560001A4603467B800B467B7013463B707B8894
:10157000002B0ED0786800F021F838787A787988D6
:101580003B7D01933B7C00930346786800F02EF886
:1015900000E000BF0837BD4680BD00BF80B483B007
:1015A00000AF78607B6803F13F4303F57E039B0A3D
:1015B0009BB218460C37BD4680BC704780B582B0E0
:1015C00000AF78607868FFF7E9FF03461A46012309
:1015D00003FA02F1044A044B1B6B0B43136300BF75
:1015E0000837BD4680BD00BF0038024080B584B0DA
:1015F00000AF7860084611461A4603467B800B46CA
:101600007B7013463B707868FFF7C8FF0346BB73D7
:101610000023FB7367E07A88FB7B42FA03F303F055
:101620000103002B5BD0BB7BBA7B324931F812201F
:1016300011B2FA7B012000FA02F212B20A4312B28E
:1016400091B22C4A22F813107B68DB68FA7B5200B7
:10165000032101FA02F2D2431340397EFA7B520091
:1016600001FA02F21A437B68DA607B681A68FB7B36
:101670005B00032101FA03F3DB4313407978FA7B23
:10168000520001FA02F21A437B681A607B78012B40
:1016900002D07B78022B23D17B685B68FA7B012127
:1016A00001FA02F292B2D24313403978FA7B01FA7E
:1016B00002F292B21A437B685A607B689A68FB7B9D
:1016C0005B00032101FA03F3DB431340397FFA7B0C
:1016D000520001FA02F21A437B689A6000E000BFF0
:1016E000FB7B0133FB73FB7B0F2B94D900BF1037BF
:1016F000BD4680BD8C04002080B485B000AF78600A
:1017000039600023FB817B681B88FB817B68284A4A
:10171000934213D07B68274A93420FD07B68B3F182
:10172000804F0BD07B68244A934207D07B68234AC2
:10173000934203D07B68224A934208D1FB8923F06D
:101740007003FB813B685A88FB891343FB817B68EC
:101750001C4A93420CD07B681B4A934208D0FB89F9
:1017600023F44073FB813B681A89FB891343FB8197
:101770007B68FA891A803B685A687B68DA623B6842
:101780001A887B681A857B68094A934203D07B6874
:10179000084A934204D13B689B7A9AB27B681A86C6
:1017A0007B6801229A8200BF1437BD4680BC704717
:1017B0000000014000040140000400400008004017
:1017C000000C0040001000400014004080B483B0C2
:1017D00000AF78600B46FB70FB78002B08D07B686D
:1017E0001B889BB243F001039AB27B681A8007E022
:1017F0007B681B889BB223F001039AB27B681A8036
:1018000000BF0C37BD4680BC704700BF80B483B0BA
:1018100000AF78600B467B8013467B707B78002B93
:1018200008D07B689B899AB27B8813439AB27B6805
:101830009A8109E07B689B899AB27B88DB439BB2E3
:1018400013409AB27B689A8100BF0C37BD4680BCBA
:10185000704700BF80B485B000AF78600B467B80D6
:101860000023FB730023BB8100237B817B681B8AE1
:101870009AB27B881340BB817B689B899AB27B8834
:1018800013407B81BB89002B05D07B89002B02D0C4
:101890000123FB7301E00023FB73FB7B1846143725
:1018A000BD4680BC704700BF80B483B000AF786095
:1018B0000B467B807B88DB439AB27B681A8200BF31
:1018C0000C37BD4680BC704770B4840746D0541EA8
:1018D000002A41D0CDB2034602E0621EE4B31446B2
:1018E00003F8015B9A07F8D1032C2ED9CDB245EA53
:1018F00005250F2C45EA054519D903F110022646A6
:10190000103E0F2E42F8105C42F80C5C42F8085C66
:1019100042F8045C02F11002F2D8A4F1100222F0A5
:101920000F0204F00F041032032C13440DD91E468D
:101930002246043A032A46F8045BFAD8221F22F012
:1019400003020432134404F003042CB1C9B21C4452
:1019500003F8011BA342FBD170BC70471446034639
:10196000C2E700BF024B1A6801235C3200F002B8E4
:1019700050040020F0B420B307460D4617F8016B61
:1019800001E0A64216D015F8014B002CF9D1EEB1BA
:101990003E460C4616F8015B00E073B114F8013BBB
:1019A0009D42FAD15DB100233B7016600646304679
:1019B000F0BC704763B13846DEE73746E8E72E46AD
:1019C000F3E710680028D7D10646F0E71660EEE787
:1019D000176006460370EAE70040145452656164DC
:1019E000792E00000A0000003B000000496E697477
:0F19F00069616C697A696E672E2E2E005844006B
:1019FF0000000000010203040102030406070809A6
:101A0F00007A030A00000000000000000102030436
:101A1F000607080900000000000000001403002062
:101A2F007C030020E4030020000000000000000001
:101A3F000000000000000000000000000000000097
:101A4F000000000000000000000000000000000087
:101A5F000000000000000000000000000000000077
:101A6F000000000000000000000000000000000067
:101A7F000000000000000000000000000000000057
:101A8F000000000000000000000000000000000047
:101A9F000000000000000000000000000000000037
:101AAF000000000000000000000000000000000027
:101ABF000000000000000000000000000000000017
:101ACF0001000000000000000E33CDAB34126DE6B4
:101ADF00ECDE05000B00000000000000000000001D
:101AEF0000000000000000000000000000000000E7
:101AFF0000000000000000000000000000000000D7
:101B0F0000000000000000000000000000000000C6
:101B1F0000000000000000000000000000000000B6
:041E4F002800002047
:0400000508000000EF
:00000001FF
