:020000040800F2
:10000000380800204D040008A9040008A9040008CD
:10001000A9040008A9040008A904000800000000C1
:10002000000000000000000000000000A90400081B
:10003000A904000800000000A9040008A90800089D
:10004000A9040008A9040008A9040008A9040008DC
:10005000A9040008A9040008A9040008A9040008CC
:10006000A9040008A9040008A9040008A9040008BC
:10007000A9040008A9040008A9040008A9040008AC
:10008000A9040008A9040008A9040008A90400089C
:10009000A9040008A9040008A9040008A90400088C
:1000A000A9040008A9040008A9040008A90400087C
:1000B000A904000875060008A9040008A90400089E
:1000C000A9040008A9040008A9040008A90400085C
:1000D000A9040008A9040008A9040008C50600082E
:1000E000A9040008A9040008A9040008A90400083C
:1000F000A9040008A9040008A9040008A90400082C
:10010000A9040008A9040008A9040008A90400081B
:10011000A9040008A9040008A9040008A90400080B
:10012000A9040008A9040008A9040008A9040008FB
:10013000A9040008A9040008A9040008A9040008EB
:10014000A9040008A9040008A9040008A9040008DB
:10015000A9040008A9040008A9040008A9040008CB
:10016000A9040008A9040008A9040008A9040008BB
:10017000A9040008A9040008A9040008A9040008AB
:10018000A9040008A904000880B58AB000AF78600F
:10019000396000237B6200233B620023FB61002364
:1001A000BB617B681B8A9BB27B627B6A23F44053F2
:1001B0007B623B68DB881A467B6A13437B627B6AFF
:1001C0009AB27B681A827B689B899BB27B627B6A4E
:1001D00023F4B05323F00C037B623B689A883B689E
:1001E0001B8913439AB23B685B8913439BB21A463F
:1001F0007B6A13437B627B6A9AB27B689A817B68D5
:100200009B8A9BB27B627B6A23F440737B623B6870
:100210009B891A467B6A13437B627B6A9AB27B682E
:100220009A8207F10803184600F058FA7B68304AB2
:10023000934203D07B682F4A934202D17B693B6291
:1002400001E03B693B627B689B899BB21BB2002B40
:100250000CDA3A6A13469B0013449A001A443B682E
:100260001B685B00B2FBF3F3FB610BE03A6A1346D9
:100270009B0013449A001A443B681B689B00B2FB26
:10028000F3F3FB61FB691C4AA2FB03235B091B011F
:100290007B627B6A1B09642202FB03F3FA69D31AAF
:1002A000BB617B689B899BB21BB2002B0CDABB69DC
:1002B000DB003233104AA2FB03235B0903F0070380
:1002C0007A6A13437B620BE0BB691B0132330A4A33
:1002D000A2FB03235B0903F00F037A6A13437B62DB
:1002E0007B6A9AB27B681A8100BF2837BD4680BD01
:1002F00000100140001401401F85EB5180B483B011
:1003000000AF78600B46FB70FB78002B08D07B6851
:100310009B899BB243F400539AB27B689A8107E0B1
:100320007B689B899BB223F400539AB27B689A81C5
:1003300000BF0C37BD4680BC704700BF80B483B09F
:1003400000AF78600B467B807B88C3F308039AB2CA
:100350007B689A8000BF0C37BD4680BC704700BFE9
:1003600080B485B000AF78600B467B800023FB73C0
:100370007B681B889AB27B8813409BB2002B02D00B
:100380000123FB7301E00023FB73FB7B184614374A
:10039000BD4680BC704700BF80B487B000AF7860B6
:1003A0000B467B800023FB6000237B610023BB6046
:1003B0000023FB747B88DBB25B09DBB2BB607B880C
:1003C00003F01F037B6101227B6902FA03F37B6167
:1003D000BB68012B07D17B689B899BB21A467B695E
:1003E00013407B6111E0BB68022B07D17B681B8A3D
:1003F0009BB21A467B6913407B6106E07B689B8A4F
:100400009BB21A467B6913407B617B881B0A9BB2B7
:10041000FB600122FB6802FA03F3FB607B681B8828
:100420009BB21A46FB681340FB607B69002B05D02A
:10043000FB68002B02D00123FB7401E00023FB7456
:10044000FB7C18461C37BD4680BC704780B582B027
:1004500000AF104B7B60104B3B6007E03B681A1D00
:100460003A607A68111D796012681A603B680B4A1D
:100470009342F3D30A480B494FF000028842B8BFB9
:1004800040F8042BFADB00F02BF800BF0837BD461C
:1004900080BD00BF640E0008000000201000002096
:1004A000100000203800002080B400AFFEE700BF3D
:1004B00080B483B000AF0346FB71084997F9073059
:1004C0005B09FA7902F01F02012000FA02F241F8FA
:1004D000232000BF0C37BD4680BC704700E100E020
:1004E00080B58AB000AF0121022000F0BFF940F2D0
:1004F000E7333B6242F2CF03BB830023BB8400237C
:10050000FB8307F11C031946554800F0C3FB01218A
:10051000534800F029FC4FF4C06000F049FB1D2354
:100520003B7600237B760023BB760123FB7607F125
:100530001803184600F04EFB0121494800F082FCE8
:1005400001220121464800F02FFC0121012000F08A
:100550006FF90121042000F06BF90121082000F05F
:1005600067F901214FF4802000F080F94FF44063D7
:100570003B6102233B750023BB750123FB750223FE
:100580007B7507F110031946364800F005FA06237B
:100590003B6102233B750023BB750123FB750223DE
:1005A0007B7507F1100319462F4800F0F5F94FF459
:1005B00000533B6102233B750023BB750123FB7590
:1005C00002237B7507F110031946284800F0E4F96F
:1005D00007220A21234800F0A3FA07220B21214811
:1005E00000F09EFA4FF4E1333B600023FB800023D0
:1005F000BB8000233B810023BB810C237B813B46D6
:1006000019461B48FFF7C0FD01211948FFF776FE88
:1006100027233B7600237B760023BB760123FB76E2
:1006200007F11803184600F0D5FA2720FFF740FF1E
:1006300004210D4800F058FA04210B4800F03AFA62
:100640000346002B05D14FF40051084800F04CFA46
:10065000EEE74FF40051054800F054FAE8E700BF18
:10066000000400400008024000000240000C02406C
:100670000048004080B500AF0121104800F0B8FBF1
:100680000346002B17D000BF80210D48FFF768FEFE
:100690000346002BF8D061210948FFF74FFE00BF49
:1006A00040210748FFF75CFE0346002BF8D00121EC
:1006B000024800F0C7FB00BF80BD00BF000400403F
:1006C0000048004080B500AF40F225510248FFF7D6
:1006D00063FE00BF80BD00BF0048004080B489B009
:1006E00000AF78600023BB6100237B610023FB61C6
:1006F00002233B610023FB600223BB60484B9B68E5
:1007000003F00C03BB61BB69042B07D0082B09D095
:10071000002B3FD17B68434A1A603FE07B68424A26
:100720001A603BE03E4B5B6803F480039B0DFB606B
:100730003B4B5B6803F03F03BB60FB68002B0DD0B5
:10074000394ABB68B2FBF3F2354B596847F6C073C0
:100750000B409B0903FB02F3FB610CE0314ABB68D1
:10076000B2FBF3F22E4B596847F6C0730B409B095E
:1007700003FB02F3FB612A4B5B6803F440331B0C61
:1007800001335B003B61FA693B69B2FBF3F27B68C2
:100790001A6003E07B68234A1A6000BF204B9B6805
:1007A00003F0F003BB61BB691B09BB611F4ABB6956
:1007B00013441B78DBB27B617B681A687B69DA4083
:1007C0007B685A60164B9B6803F4E053BB61BB69BE
:1007D0009B0ABB61154ABB6913441B78DBB27B6182
:1007E0007B685A687B69DA407B689A600C4B9B682F
:1007F00003F46043BB61BB695B0BBB610B4ABB6924
:1008000013441B78DBB27B617B685A687B69DA40F2
:100810007B68DA6000BF2437BD4680BC704700BFEC
:10082000003802400024F40040787D0100000020E0
:1008300080B483B000AF78600B46FB70FB78002B70
:1008400006D00949084B1A6B7B6813430B6306E01B
:100850000549054B1A6B7B68DB4313400B6300BFF4
:100860000C37BD4680BC70470038024080B483B06E
:1008700000AF78600B46FB70FB78002B06D009496F
:10088000084B1A6C7B6813430B6406E00549054B63
:100890001A6C7B68DB4313400B6400BF0C37BD460A
:1008A00080BC70470038024080B582B000AF374B43
:1008B0001B680133354A1360354B1B68002B04D08D
:1008C000334B1B68013B324A1360AFF300800023B7
:1008D000FB7152E0FB792F4A9B0013445B68002BAD
:1008E00048D0FB792B4A9B0013445B681B7B002B91
:1008F00040D0FB79274A9B0013445B689B68002B20
:1009000038D0FB79234A9B0013445B689A68013A0C
:100910009A60FB791F4A9B0013445B689B68002B1D
:1009200028D1FB791B4A9B0013445B681A69FB7949
:1009300018499B000B445B685B6918469047FB793C
:10094000144A9B0013445A68FB7912499B000B44DC
:100950005B681B689360FB790E4A9B0013445B68DD
:100960005B68002B06D1FB790A4A9B0013445B6845
:1009700000221A73FB790133FB71064B1B78FA795D
:100980009A42A7D300BF0837BD4680BD140000209F
:10099000180000202000002080B487B000AF7860ED
:1009A000396000237B6100233B610023FB6000234F
:1009B0007B6176E001227B6902FA03F33B613B68CD
:1009C0001A683B691340FB60FA683B699A4265D13B
:1009D0007B681A687B695B00032101FA03F3DB4340
:1009E0001A407B681A607B681A683B681B79194655
:1009F0007B695B0001FA03F31A437B681A603B686A
:100A00001B79012B03D03B681B79022B2ED17B680D
:100A10009A687B695B00032101FA03F3DB431A4008
:100A20007B689A607B689A683B685B7919467B694A
:100A30005B0001FA03F31A437B689A607B685A688B
:100A40007B699BB2194601238B40DB431A407B68CC
:100A50005A607B685B683A68927911467A6992B20B
:100A600001FA02F292B21A437B685A607B68DA6834
:100A70007B699BB25B00032101FA03F3DB431A405D
:100A80007B68DA607B68DA683B68DB7919467B69EA
:100A90005B0001FA03F31A437B68DA607B69013378
:100AA0007B617B690F2B85D900BF1C37BD4680BC9D
:100AB000704700BF80B485B000AF78600B467B8084
:100AC0000023FB737B681A697B881340002B02D0DC
:100AD0000123FB7301E00023FB73FB7B18461437F3
:100AE000BD4680BC704700BF80B483B000AF786063
:100AF0000B467B807B687A881A8300BF0C37BD4623
:100B000080BC704780B483B000AF78600B467B80B8
:100B10007B687A885A8300BF0C37BD4680BC70471B
:100B200080B485B000AF78600B467B8013467B7045
:100B30000023FB600023BB607A787B8803F0070307
:100B40009B0002FA03F3FB607B88DB089BB218462C
:100B50007B88DB089BB21A467B68083253F8222058
:100B60007B8803F007039B000F2101FA03F3DB43AB
:100B700002EA03017B6800F1080243F822107B8837
:100B8000DB089BB21A467B68083253F82220FB68C8
:100B90001343BB607B88DB089BB21A467B68083234
:100BA000B96843F8221000BF1437BD4680BC7047B7
:100BB00080B483B000AF7860054A7B6843F0BF63C0
:100BC00043F40033D36000BF0C37BD4680BC704790
:100BD00000ED00E080B485B000AF78600023FB73C7
:100BE0000023BB730F237B737B68DB78002B38D02B
:100BF000264BDB68DB4303F4E0631B0AFB73FB7BE0
:100C0000C3F10403BB737A7BFB7B42FA03F37B7370
:100C10007B685B781A46BB7B02FA03F3FB737B6845
:100C20009A787B7B1340DAB2FB7B1343FB73FB7B2D
:100C30001B01FB73164A7B681B781344FA7B83F80D
:100C40000023134A7B681B785B09DBB218467B687C
:100C50001B7803F01F03012101FA03F342F820304F
:100C60000FE00B497B681B785B09DBB218467B6899
:100C70001B7803F01F0301229A4000F1200341F882
:100C8000232000BF1437BD4680BC704700ED00E054
:100C900000E100E080B485B000AF786039600023E7
:100CA000FB817B681B88FB817B68284A934213D0B9
:100CB0007B68274A93420FD07B68B3F1804F0BD0FB
:100CC0007B68244A934207D07B68234A934203D02F
:100CD0007B68224A934208D1FB8923F07003FB8191
:100CE0003B685A88FB891343FB817B681C4A93420B
:100CF0000CD07B681B4A934208D0FB8923F44073D5
:100D0000FB813B681A89FB891343FB817B68FA8965
:100D10001A803B685A687B68DA623B681A887B688D
:100D20001A857B68094A934203D07B68084A93423C
:100D300004D13B689B7A9AB27B681A867B68012251
:100D40009A8200BF1437BD4680BC70470000014046
:100D5000000401400004004000080040000C004076
:100D6000001000400014004080B483B000AF7860F1
:100D70000B46FB70FB78002B08D07B681B889BB26E
:100D800043F001039AB27B681A8007E07B681B88F6
:100D90009BB223F001039AB27B681A8000BF0C3724
:100DA000BD4680BC704700BF80B483B000AF7860A0
:100DB0000B467B8013467B707B78002B08D07B68CA
:100DC0009B899AB27B8813439AB27B689A8109E027
:100DD0007B689B899AB27B88DB439BB213409AB2B3
:100DE0007B689A8100BF0C37BD4680BC704700BF4E
:100DF00080B485B000AF78600B467B800023FB7326
:100E00000023BB8100237B817B681B8A9AB27B888D
:100E10001340BB817B689B899AB27B8813407B819E
:100E2000BB89002B05D07B89002B02D00123FB73EB
:100E300001E00023FB73FB7B18461437BD4680BCE2
:100E4000704700BF80B483B000AF78600B467B80F2
:100E50007B88DB439AB27B681A8200BF0C37BD46A1
:040E600080BC70479B
:100E6400000000000102030401020304060708094C
:0400000508000000EF
:00000001FF
